{
    "contractName": "SimpleERC20Bridge",
    "abi": [
        {
            "inputs": [
                {
                    "internalType": "address",
                    "name": "router",
                    "type": "address"
                }
            ],
            "stateMutability": "nonpayable",
            "type": "constructor"
        },
        {
            "inputs": [
                {
                    "internalType": "address",
                    "name": "token",
                    "type": "address"
                }
            ],
            "name": "SafeERC20FailedOperation",
            "type": "error"
        },
        {
            "anonymous": false,
            "inputs": [
                {
                    "indexed": true,
                    "internalType": "bytes32",
                    "name": "sourceBlockchainID",
                    "type": "bytes32"
                },
                {
                    "indexed": true,
                    "internalType": "address",
                    "name": "sourceAddress",
                    "type": "address"
                },
                {
                    "indexed": false,
                    "internalType": "uint256",
                    "name": "amount",
                    "type": "uint256"
                },
                {
                    "indexed": false,
                    "internalType": "string",
                    "name": "remark",
                    "type": "string"
                }
            ],
            "name": "ReceivedMessage",
            "type": "event"
        },
        {
            "anonymous": false,
            "inputs": [
                {
                    "indexed": true,
                    "internalType": "bytes32",
                    "name": "sourceBlockchainID",
                    "type": "bytes32"
                },
                {
                    "indexed": true,
                    "internalType": "address",
                    "name": "sourceAddress",
                    "type": "address"
                },
                {
                    "indexed": false,
                    "internalType": "uint256",
                    "name": "messageSize",
                    "type": "uint256"
                }
            ],
            "name": "ReceivingMessage",
            "type": "event"
        },
        {
            "anonymous": false,
            "inputs": [
                {
                    "indexed": true,
                    "internalType": "bytes32",
                    "name": "destinationBlockchainID",
                    "type": "bytes32"
                },
                {
                    "indexed": true,
                    "internalType": "address",
                    "name": "destinationAddress",
                    "type": "address"
                },
                {
                    "indexed": false,
                    "internalType": "uint256",
                    "name": "amount",
                    "type": "uint256"
                },
                {
                    "indexed": false,
                    "internalType": "string",
                    "name": "remark",
                    "type": "string"
                }
            ],
            "name": "SendingMessage",
            "type": "event"
        },
        {
            "anonymous": false,
            "inputs": [
                {
                    "indexed": true,
                    "internalType": "bytes32",
                    "name": "destinationBlockchainID",
                    "type": "bytes32"
                },
                {
                    "indexed": true,
                    "internalType": "address",
                    "name": "destinationAddress",
                    "type": "address"
                },
                {
                    "indexed": false,
                    "internalType": "uint256",
                    "name": "amount",
                    "type": "uint256"
                },
                {
                    "indexed": false,
                    "internalType": "string",
                    "name": "remark",
                    "type": "string"
                }
            ],
            "name": "SentMessage",
            "type": "event"
        },
        {
            "anonymous": false,
            "inputs": [
                {
                    "indexed": true,
                    "internalType": "address",
                    "name": "token",
                    "type": "address"
                },
                {
                    "indexed": true,
                    "internalType": "address",
                    "name": "to",
                    "type": "address"
                },
                {
                    "indexed": false,
                    "internalType": "uint256",
                    "name": "amount",
                    "type": "uint256"
                },
                {
                    "indexed": false,
                    "internalType": "string",
                    "name": "remark",
                    "type": "string"
                }
            ],
            "name": "TokensMinted",
            "type": "event"
        },
        {
            "inputs": [],
            "name": "lastSwapAmount",
            "outputs": [
                {
                    "internalType": "uint256",
                    "name": "",
                    "type": "uint256"
                }
            ],
            "stateMutability": "view",
            "type": "function"
        },
        {
            "inputs": [],
            "name": "lastSwapRemark",
            "outputs": [
                {
                    "internalType": "string",
                    "name": "",
                    "type": "string"
                }
            ],
            "stateMutability": "view",
            "type": "function"
        },
        {
            "inputs": [],
            "name": "lastSwapSourceAddress",
            "outputs": [
                {
                    "internalType": "address",
                    "name": "",
                    "type": "address"
                }
            ],
            "stateMutability": "view",
            "type": "function"
        },
        {
            "inputs": [],
            "name": "lastSwapSourceBlockchainID",
            "outputs": [
                {
                    "internalType": "bytes32",
                    "name": "",
                    "type": "bytes32"
                }
            ],
            "stateMutability": "view",
            "type": "function"
        },
        {
            "inputs": [],
            "name": "messenger",
            "outputs": [
                {
                    "internalType": "contract ITeleporterMessenger",
                    "name": "",
                    "type": "address"
                }
            ],
            "stateMutability": "view",
            "type": "function"
        },
        {
            "inputs": [
                {
                    "internalType": "bytes32",
                    "name": "sourceBlockchainID",
                    "type": "bytes32"
                },
                {
                    "internalType": "address",
                    "name": "sourceAddress",
                    "type": "address"
                },
                {
                    "internalType": "bytes",
                    "name": "message",
                    "type": "bytes"
                }
            ],
            "name": "receiveTeleporterMessage",
            "outputs": [],
            "stateMutability": "nonpayable",
            "type": "function"
        },
        {
            "inputs": [
                {
                    "internalType": "bytes32",
                    "name": "destinationBlockchainID",
                    "type": "bytes32"
                },
                {
                    "internalType": "address",
                    "name": "destinationAddress",
                    "type": "address"
                },
                {
                    "internalType": "address",
                    "name": "tokenAddress",
                    "type": "address"
                },
                {
                    "internalType": "uint256",
                    "name": "amount",
                    "type": "uint256"
                },
                {
                    "internalType": "string",
                    "name": "remark",
                    "type": "string"
                }
            ],
            "name": "sendERC20WithICM",
            "outputs": [],
            "stateMutability": "nonpayable",
            "type": "function"
        },
        {
            "inputs": [],
            "name": "teleporterRouter",
            "outputs": [
                {
                    "internalType": "address",
                    "name": "",
                    "type": "address"
                }
            ],
            "stateMutability": "view",
            "type": "function"
        }
    ],
    "bytecode": "60a034607857601f61099c38819003918201601f19168301916001600160401b03831184841017607c57808492602094604052833981010312607857516001600160a01b038116908190036078575f80546001600160a01b03191691909117905560405161090b90816100918239608051816106bc0152f35b5f80fd5b634e487b7160e01b5f52604160045260245ffdfe6080604081815260049182361015610015575f80fd5b5f3560e01c90816225d0c4146106eb5750806322bfdb6c146106a857806326e965b6146106805780633cb747bf1461065957806396dd88691461063b5780639d84bb071461061d578063c868efaa146103af5763dd37f06b14610076575f80fd5b3461031c5760a036600319011261031c5781359061009261085d565b6001600160a01b03604435818116959193929086900361031c57606435916084359067ffffffffffffffff80831161031c57866100d3879436908501610873565b98909516998a8a7fbaba232e1230e3840a1262ffc9534034bc2bae27294b1ef0254b54ae5e34c66b6101188c89519182918d835260209e8f8401528b8301908d6108b5565b0390a38451928884016323b872dd60e01b815260249433868201523060448201528960648201526064815260a081018181108482111761039d578852518a915f919082865af115610393575f513d61038a5750813b155b610374578551918983015233868301528760608301526080808301526101ab8261019d60a082018d8b6108b5565b03601f198101845283610803565b825f541693865190878201828110848211176103615788525f82525f8b8301528751918b83018381108582111761034f5789525f835288519360c085019081118582101761034f5789528d8452838c018f8152848a0191825262030d40606086019081526080860194855260a086019687528a51630624488560e41b8152998a018e9052945192890192909252905185166044880152518051851660648801528a01516084870152905160a48601525160e060c4860152805161010486018190528994869490936101248601939092908701915f905b8282106103315750505050836102a681935f93516023198483030160e4850152610839565b03925af18015610327576102f5575b50907ff66636ba771404f2f9ed4b071b99f27b05fe266de00169fbd32f3cddeb9d82cc9482806102f0945196879687528601528401916108b5565b0390a3005b8490819392933d8311610320575b61030d8183610803565b8101031261031c57905f6102b5565b5f80fd5b503d610303565b82513d5f823e3d90fd5b8351811686528d988a98509586019590930192600190910190610281565b8260418a634e487b7160e01b5f52525ffd5b50634e487b7160e01b5f90815260418852fd5b8551635274afe760e01b81528086018390528490fd5b6001141561016f565b85513d5f823e3d90fd5b86604189634e487b7160e01b5f52525ffd5b50903461031c57606036600319011261031c578035916103cd61085d565b906044359267ffffffffffffffff9384811161031c576103f09036908301610873565b5f546001600160a01b0395919492939190861633036105bf57851682519480865281897f031e54b26d0033ac0375aedcc26054edc325f34864171e5144a6fa88066f345b60208099a388600155816bffffffffffffffffffffffff60a01b600254161760025584019560808588031261031c5761046c856108a1565b976104788787016108a1565b98858701359660608101359083821161031c57019189601f8401121561031c5782359081116105ac578651996104b7601f8301601f19168b018c610803565b818b5289828501011161031c5788815f928c83808998019101378b010152169716977fd573ea01fb8a3b3412b6c5dec83ed1170e18f65f3e220e4399625533b00c5b6c84518681528588820152806105118782018b610839565b0390a38682519163a9059cbb60e01b835282015282602482015283816044815f8a5af1801561032757610579575b507fe0110d19dd09efe5f4f4f8ad56551c09a14177cd013b6f7c24ad779a79a2a74e9381806102f093519586958652850152830190610839565b8381813d83116105a5575b61058e8183610803565b8101031261031c57518015150361031c575f61053f565b503d610584565b604186634e487b7160e01b5f525260245ffd5b506020608492519162461bcd60e51b8352820152603260248201527f52656365697665724f6e5375626e65743a20756e617574686f72697a6564205460448201527132b632b837b93a32b926b2b9b9b2b733b2b960711b6064820152fd5b503461031c575f36600319011261031c576020906001549051908152f35b503461031c575f36600319011261031c576020906003549051908152f35b503461031c575f36600319011261031c575f5490516001600160a01b039091168152602090f35b503461031c575f36600319011261031c5760025490516001600160a01b039091168152602090f35b503461031c575f36600319011261031c57517f00000000000000000000000000000000000000000000000000000000000000006001600160a01b03168152602090f35b9190503461031c575f36600319011261031c575f9083549160018360011c90600185169687156107f9575b60209586841089146107e657868899858a98999a5291825f146107bf575050600114610763575b50505061075f9291610750910385610803565b51928284938452830190610839565b0390f35b5f90815286935091907f8a35acfbc15ff81a39ae7d344fd709f28e8600b4aa8c65c6b64bfe7fe36bd19b5b8284106107a7575050508201018161075061075f61073d565b8054848a01860152889550879490930192810161078e565b60ff19168782015293151560051b86019093019350849250610750915061075f905061073d565b602282634e487b7160e01b5f525260245ffd5b91607f1691610716565b90601f8019910116810190811067ffffffffffffffff82111761082557604052565b634e487b7160e01b5f52604160045260245ffd5b805180835260209291819084018484015e5f828201840152601f01601f1916010190565b602435906001600160a01b038216820361031c57565b9181601f8401121561031c5782359167ffffffffffffffff831161031c576020838186019501011161031c57565b35906001600160a01b038216820361031c57565b908060209392818452848401375f828201840152601f01601f191601019056fea2646970667358221220206eae1d45aeeb0c613a56adc67720c2c935a39bca52ef90d2190b6a08d0725964736f6c63430008190033",
    "sourcePath": "/Users/jw/Documents/default-workspace/wl4g-projects/avalanche-selfhosting-poc/src/crosschaintoken/SimpleERC20Bridge.sol",
    "compiler": {
        "name": "solc",
        "version": "0.8.25+commit.b61c2a91"
    },
    "functionHashes": {
        "lastSwapAmount()": "96dd8869",
        "lastSwapRemark()": "0025d0c4",
        "lastSwapSourceAddress()": "26e965b6",
        "lastSwapSourceBlockchainID()": "9d84bb07",
        "messenger()": "3cb747bf",
        "receiveTeleporterMessage(bytes32,address,bytes)": "c868efaa",
        "sendERC20WithICM(bytes32,address,address,uint256,string)": "dd37f06b",
        "teleporterRouter()": "22bfdb6c"
    },
    "gasEstimates": {
        "creation": {
            "codeDepositCost": "463000",
            "executionCost": "infinite",
            "totalCost": "infinite"
        },
        "external": {
            "lastSwapAmount()": "2358",
            "lastSwapRemark()": "infinite",
            "lastSwapSourceAddress()": "2335",
            "lastSwapSourceBlockchainID()": "2380",
            "messenger()": "2356",
            "receiveTeleporterMessage(bytes32,address,bytes)": "infinite",
            "sendERC20WithICM(bytes32,address,address,uint256,string)": "infinite",
            "teleporterRouter()": "infinite"
        },
        "internal": {
            "_mintToken(address,address,uint256,string memory)": "infinite"
        }
    }
}